{
  "contractName": "OfferLetterContract",
  "abi": [
    {
      "anonymous": false,
      "inputs": [
        {
          "indexed": false,
          "internalType": "string",
          "name": "offerLetterId",
          "type": "string"
        },
        {
          "indexed": false,
          "internalType": "string",
          "name": "organisation",
          "type": "string"
        },
        {
          "indexed": false,
          "internalType": "string",
          "name": "candidate",
          "type": "string"
        },
        {
          "indexed": false,
          "internalType": "string",
          "name": "offerHash",
          "type": "string"
        },
        {
          "indexed": false,
          "internalType": "string",
          "name": "uniqueURL",
          "type": "string"
        }
      ],
      "name": "OfferLetterCreated",
      "type": "event"
    },
    {
      "inputs": [
        {
          "internalType": "string",
          "name": "offerLetterId",
          "type": "string"
        },
        {
          "internalType": "string",
          "name": "organisation",
          "type": "string"
        },
        {
          "internalType": "string",
          "name": "candidate",
          "type": "string"
        },
        {
          "internalType": "string",
          "name": "salary",
          "type": "string"
        },
        {
          "internalType": "string",
          "name": "position",
          "type": "string"
        },
        {
          "internalType": "string",
          "name": "date",
          "type": "string"
        }
      ],
      "name": "createOfferLetter",
      "outputs": [],
      "stateMutability": "nonpayable",
      "type": "function"
    },
    {
      "inputs": [
        {
          "internalType": "string",
          "name": "offerLetterId",
          "type": "string"
        }
      ],
      "name": "queryOfferLetter",
      "outputs": [
        {
          "internalType": "string",
          "name": "organisation",
          "type": "string"
        },
        {
          "internalType": "string",
          "name": "candidate",
          "type": "string"
        },
        {
          "internalType": "string",
          "name": "salary",
          "type": "string"
        },
        {
          "internalType": "string",
          "name": "position",
          "type": "string"
        },
        {
          "internalType": "string",
          "name": "date",
          "type": "string"
        },
        {
          "internalType": "string",
          "name": "offerHash",
          "type": "string"
        },
        {
          "internalType": "string",
          "name": "uniqueURL",
          "type": "string"
        }
      ],
      "stateMutability": "view",
      "type": "function",
      "constant": true
    },
    {
      "inputs": [
        {
          "internalType": "string",
          "name": "offerLetterId",
          "type": "string"
        },
        {
          "internalType": "string",
          "name": "organisation",
          "type": "string"
        },
        {
          "internalType": "string",
          "name": "candidate",
          "type": "string"
        },
        {
          "internalType": "string",
          "name": "salary",
          "type": "string"
        },
        {
          "internalType": "string",
          "name": "position",
          "type": "string"
        },
        {
          "internalType": "string",
          "name": "date",
          "type": "string"
        }
      ],
      "name": "verifyOfferLetter",
      "outputs": [
        {
          "internalType": "bool",
          "name": "",
          "type": "bool"
        }
      ],
      "stateMutability": "view",
      "type": "function",
      "constant": true
    }
  ],
  "bytecode": "0x608060405234801561001057600080fd5b50611cb6806100206000396000f3fe608060405234801561001057600080fd5b506004361061005e576000357c01000000000000000000000000000000000000000000000000000000009004806351a4651914610063578063609552121461007f578063ac5a2722146100af575b600080fd5b61007d60048036038101906100789190611349565b6100e5565b005b61009960048036038101906100949190611349565b61036b565b6040516100a69190611499565b60405180910390f35b6100c960048036038101906100c491906114b4565b61095c565b6040516100dc979695949392919061157c565b60405180910390f35b6001866040516100f59190611658565b908152602001604051809103902060009054906101000a900460ff1615610151576040517f08c379a0000000000000000000000000000000000000000000000000000000008152600401610148906116bb565b60405180910390fd5b6000858585858560405160200161016c9594939291906116db565b60405160208183030381529060405290506000816040516020016101909190611658565b60405160208183030381529060405280519060200120905060006101b382610ecc565b90506000896040516020016101c89190611772565b604051602081830303815290604052905060006040518061010001604052808c81526020018b81526020018a81526020018981526020018881526020018781526020018481526020018381525090508060008c6040516102289190611658565b9081526020016040518091039020600082015181600001908161024b91906119b0565b50602082015181600101908161026191906119b0565b50604082015181600201908161027791906119b0565b50606082015181600301908161028d91906119b0565b5060808201518160040190816102a391906119b0565b5060a08201518160050190816102b991906119b0565b5060c08201518160060190816102cf91906119b0565b5060e08201518160070190816102e591906119b0565b509050506001808c6040516102fa9190611658565b908152602001604051809103902060006101000a81548160ff0219169083151502179055507f8e0fdadc4d79c06072bfaf16a1164e29ee1d0ff6ba077684bdeea32bd872517d8b8b8b8686604051610356959493929190611a82565b60405180910390a15050505050505050505050565b600060018760405161037d9190611658565b908152602001604051809103902060009054906101000a900460ff166103d8576040517f08c379a00000000000000000000000000000000000000000000000000000000081526004016103cf90611b44565b60405180910390fd5b600080886040516103e99190611658565b908152602001604051809103902060405180610100016040529081600082018054610413906117c3565b80601f016020809104026020016040519081016040528092919081815260200182805461043f906117c3565b801561048c5780601f106104615761010080835404028352916020019161048c565b820191906000526020600020905b81548152906001019060200180831161046f57829003601f168201915b505050505081526020016001820180546104a5906117c3565b80601f01602080910402602001604051908101604052809291908181526020018280546104d1906117c3565b801561051e5780601f106104f35761010080835404028352916020019161051e565b820191906000526020600020905b81548152906001019060200180831161050157829003601f168201915b50505050508152602001600282018054610537906117c3565b80601f0160208091040260200160405190810160405280929190818152602001828054610563906117c3565b80156105b05780601f10610585576101008083540402835291602001916105b0565b820191906000526020600020905b81548152906001019060200180831161059357829003601f168201915b505050505081526020016003820180546105c9906117c3565b80601f01602080910402602001604051908101604052809291908181526020018280546105f5906117c3565b80156106425780601f1061061757610100808354040283529160200191610642565b820191906000526020600020905b81548152906001019060200180831161062557829003601f168201915b5050505050815260200160048201805461065b906117c3565b80601f0160208091040260200160405190810160405280929190818152602001828054610687906117c3565b80156106d45780601f106106a9576101008083540402835291602001916106d4565b820191906000526020600020905b8154815290600101906020018083116106b757829003601f168201915b505050505081526020016005820180546106ed906117c3565b80601f0160208091040260200160405190810160405280929190818152602001828054610719906117c3565b80156107665780601f1061073b57610100808354040283529160200191610766565b820191906000526020600020905b81548152906001019060200180831161074957829003601f168201915b5050505050815260200160068201805461077f906117c3565b80601f01602080910402602001604051908101604052809291908181526020018280546107ab906117c3565b80156107f85780601f106107cd576101008083540402835291602001916107f8565b820191906000526020600020905b8154815290600101906020018083116107db57829003601f168201915b50505050508152602001600782018054610811906117c3565b80601f016020809104026020016040519081016040528092919081815260200182805461083d906117c3565b801561088a5780601f1061085f5761010080835404028352916020019161088a565b820191906000526020600020905b81548152906001019060200180831161086d57829003601f168201915b5050505050815250509050600087878787876040516020016108b09594939291906116db565b60405160208183030381529060405290506000816040516020016108d49190611658565b60405160208183030381529060405280519060200120905060006108f782610ecc565b90508060405160200161090a9190611658565b604051602081830303815290604052805190602001208460c001516040516020016109359190611658565b60405160208183030381529060405280519060200120149450505050509695505050505050565b60608060608060608060606001886040516109779190611658565b908152602001604051809103902060009054906101000a900460ff166109d2576040517f08c379a00000000000000000000000000000000000000000000000000000000081526004016109c990611b44565b60405180910390fd5b600080896040516109e39190611658565b908152602001604051809103902060405180610100016040529081600082018054610a0d906117c3565b80601f0160208091040260200160405190810160405280929190818152602001828054610a39906117c3565b8015610a865780601f10610a5b57610100808354040283529160200191610a86565b820191906000526020600020905b815481529060010190602001808311610a6957829003601f168201915b50505050508152602001600182018054610a9f906117c3565b80601f0160208091040260200160405190810160405280929190818152602001828054610acb906117c3565b8015610b185780601f10610aed57610100808354040283529160200191610b18565b820191906000526020600020905b815481529060010190602001808311610afb57829003601f168201915b50505050508152602001600282018054610b31906117c3565b80601f0160208091040260200160405190810160405280929190818152602001828054610b5d906117c3565b8015610baa5780601f10610b7f57610100808354040283529160200191610baa565b820191906000526020600020905b815481529060010190602001808311610b8d57829003601f168201915b50505050508152602001600382018054610bc3906117c3565b80601f0160208091040260200160405190810160405280929190818152602001828054610bef906117c3565b8015610c3c5780601f10610c1157610100808354040283529160200191610c3c565b820191906000526020600020905b815481529060010190602001808311610c1f57829003601f168201915b50505050508152602001600482018054610c55906117c3565b80601f0160208091040260200160405190810160405280929190818152602001828054610c81906117c3565b8015610cce5780601f10610ca357610100808354040283529160200191610cce565b820191906000526020600020905b815481529060010190602001808311610cb157829003601f168201915b50505050508152602001600582018054610ce7906117c3565b80601f0160208091040260200160405190810160405280929190818152602001828054610d13906117c3565b8015610d605780601f10610d3557610100808354040283529160200191610d60565b820191906000526020600020905b815481529060010190602001808311610d4357829003601f168201915b50505050508152602001600682018054610d79906117c3565b80601f0160208091040260200160405190810160405280929190818152602001828054610da5906117c3565b8015610df25780601f10610dc757610100808354040283529160200191610df2565b820191906000526020600020905b815481529060010190602001808311610dd557829003601f168201915b50505050508152602001600782018054610e0b906117c3565b80601f0160208091040260200160405190810160405280929190818152602001828054610e37906117c3565b8015610e845780601f10610e5957610100808354040283529160200191610e84565b820191906000526020600020905b815481529060010190602001808311610e6757829003601f168201915b505050505081525050905080602001518160400151826060015183608001518460a001518560c001518660e00151975097509750975097509750975050919395979092949650565b606060006040518060400160405280601081526020017f303132333435363738396162636465660000000000000000000000000000000081525090506000604067ffffffffffffffff811115610f2557610f2461121e565b5b6040519080825280601f01601f191660200182016040528015610f575781602001600182028036833780820191505090505b50905060005b60208110156111e457826004868360208110610f7c57610f7b611b64565b5b1a7f0100000000000000000000000000000000000000000000000000000000000000027effffffffffffffffffffffffffffffffffffffffffffffffffffffffffffff1916908060020a82049150507f0100000000000000000000000000000000000000000000000000000000000000900460ff168151811061100257611001611b64565b5b60200101517f010000000000000000000000000000000000000000000000000000000000000090047f0100000000000000000000000000000000000000000000000000000000000000028260028361105a9190611bc2565b8151811061106b5761106a611b64565b5b60200101907effffffffffffffffffffffffffffffffffffffffffffffffffffffffffffff1916908160001a90535082600f7f0100000000000000000000000000000000000000000000000000000000000000028683602081106110d2576110d1611b64565b5b1a7f010000000000000000000000000000000000000000000000000000000000000002167f0100000000000000000000000000000000000000000000000000000000000000900460ff168151811061112d5761112c611b64565b5b60200101517f010000000000000000000000000000000000000000000000000000000000000090047f010000000000000000000000000000000000000000000000000000000000000002826002836111859190611bc2565b60016111919190611c04565b815181106111a2576111a1611b64565b5b60200101907effffffffffffffffffffffffffffffffffffffffffffffffffffffffffffff1916908160001a90535080806111dc90611c38565b915050610f5d565b508092505050919050565b6000604051905090565b600080fd5b600080fd5b600080fd5b600080fd5b6000601f19601f8301169050919050565b7f4e487b7100000000000000000000000000000000000000000000000000000000600052604160045260246000fd5b6112568261120d565b810181811067ffffffffffffffff821117156112755761127461121e565b5b80604052505050565b60006112886111ef565b9050611294828261124d565b919050565b600067ffffffffffffffff8211156112b4576112b361121e565b5b6112bd8261120d565b9050602081019050919050565b82818337600083830152505050565b60006112ec6112e784611299565b61127e565b90508281526020810184848401111561130857611307611208565b5b6113138482856112ca565b509392505050565b600082601f8301126113305761132f611203565b5b81356113408482602086016112d9565b91505092915050565b60008060008060008060c08789031215611366576113656111f9565b5b600087013567ffffffffffffffff811115611384576113836111fe565b5b61139089828a0161131b565b965050602087013567ffffffffffffffff8111156113b1576113b06111fe565b5b6113bd89828a0161131b565b955050604087013567ffffffffffffffff8111156113de576113dd6111fe565b5b6113ea89828a0161131b565b945050606087013567ffffffffffffffff81111561140b5761140a6111fe565b5b61141789828a0161131b565b935050608087013567ffffffffffffffff811115611438576114376111fe565b5b61144489828a0161131b565b92505060a087013567ffffffffffffffff811115611465576114646111fe565b5b61147189828a0161131b565b9150509295509295509295565b60008115159050919050565b6114938161147e565b82525050565b60006020820190506114ae600083018461148a565b92915050565b6000602082840312156114ca576114c96111f9565b5b600082013567ffffffffffffffff8111156114e8576114e76111fe565b5b6114f48482850161131b565b91505092915050565b600081519050919050565b600082825260208201905092915050565b60005b8381101561153757808201518184015260208101905061151c565b60008484015250505050565b600061154e826114fd565b6115588185611508565b9350611568818560208601611519565b6115718161120d565b840191505092915050565b600060e0820190508181036000830152611596818a611543565b905081810360208301526115aa8189611543565b905081810360408301526115be8188611543565b905081810360608301526115d28187611543565b905081810360808301526115e68186611543565b905081810360a08301526115fa8185611543565b905081810360c083015261160e8184611543565b905098975050505050505050565b600081905092915050565b6000611632826114fd565b61163c818561161c565b935061164c818560208601611519565b80840191505092915050565b60006116648284611627565b915081905092915050565b7f4f66666572206c657474657220494420616c7265616479206578697374730000600082015250565b60006116a5601e83611508565b91506116b08261166f565b602082019050919050565b600060208201905081810360008301526116d481611698565b9050919050565b60006116e78288611627565b91506116f38287611627565b91506116ff8286611627565b915061170b8285611627565b91506117178284611627565b91508190509695505050505050565b7f68747470733a2f2f636f6d70616e792e636f6d2f6f666665722f000000000000600082015250565b600061175c601a8361161c565b915061176782611726565b601a82019050919050565b600061177d8261174f565b91506117898284611627565b915081905092915050565b7f4e487b7100000000000000000000000000000000000000000000000000000000600052602260045260246000fd5b600060028204905060018216806117db57607f821691505b6020821081036117ee576117ed611794565b5b50919050565b60008190508160005260206000209050919050565b60006020601f8301049050919050565b60008160020a8302905092915050565b6000600883026118597fffffffffffffffffffffffffffffffffffffffffffffffffffffffffffffffff82611819565b6118638683611819565b95508019841693508086168417925050509392505050565b6000819050919050565b6000819050919050565b60006118aa6118a56118a08461187b565b611885565b61187b565b9050919050565b6000819050919050565b6118c48361188f565b6118d86118d0826118b1565b848454611829565b825550505050565b600090565b6118ed6118e0565b6118f88184846118bb565b505050565b5b8181101561191c576119116000826118e5565b6001810190506118fe565b5050565b601f82111561196157611932816117f4565b61193b84611809565b8101602085101561194a578190505b61195e61195685611809565b8301826118fd565b50505b505050565b60008160020a8304905092915050565b600061198760001984600802611966565b1980831691505092915050565b60006119a08383611976565b9150826002028217905092915050565b6119b9826114fd565b67ffffffffffffffff8111156119d2576119d161121e565b5b6119dc82546117c3565b6119e7828285611920565b600060209050601f831160018114611a1a5760008415611a08578287015190505b611a128582611994565b865550611a7a565b601f198416611a28866117f4565b60005b82811015611a5057848901518255600182019150602085019450602081019050611a2b565b86831015611a6d5784890151611a69601f891682611976565b8355505b6001600288020188555050505b505050505050565b600060a0820190508181036000830152611a9c8188611543565b90508181036020830152611ab08187611543565b90508181036040830152611ac48186611543565b90508181036060830152611ad88185611543565b90508181036080830152611aec8184611543565b90509695505050505050565b7f4f66666572206c657474657220494420646f6573206e6f742065786973740000600082015250565b6000611b2e601e83611508565b9150611b3982611af8565b602082019050919050565b60006020820190508181036000830152611b5d81611b21565b9050919050565b7f4e487b7100000000000000000000000000000000000000000000000000000000600052603260045260246000fd5b7f4e487b7100000000000000000000000000000000000000000000000000000000600052601160045260246000fd5b6000611bcd8261187b565b9150611bd88361187b565b9250828202611be68161187b565b91508282048414831517611bfd57611bfc611b93565b5b5092915050565b6000611c0f8261187b565b9150611c1a8361187b565b9250828201905080821115611c3257611c31611b93565b5b92915050565b6000611c438261187b565b91507fffffffffffffffffffffffffffffffffffffffffffffffffffffffffffffffff8203611c7557611c74611b93565b5b60018201905091905056fea2646970667358221220db59ec71eee00cf52d6cea71e598fc7b330cfd51367ec7a1bf9fa275616055ca64736f6c63430008150033",
  "immutableReferences": {},
  "source": "// SPDX-License-Identifier: MIT\r\npragma solidity ^0.8.0;\r\n\r\ncontract OfferLetterContract {\r\n    struct OfferLetter {\r\n        string offerLetterId;\r\n        string organisation;\r\n        string candidate;\r\n        string salary;\r\n        string position;\r\n        string date;\r\n        string offerHash;\r\n        string uniqueURL;\r\n    }\r\n\r\n    mapping(string => OfferLetter) private offerLetters;\r\n    mapping(string => bool) private offerLetterExists;\r\n\r\n    event OfferLetterCreated(string offerLetterId, string organisation, string candidate, string offerHash, string uniqueURL);\r\n\r\n    function createOfferLetter(\r\n        string memory offerLetterId,\r\n        string memory organisation,\r\n        string memory candidate,\r\n        string memory salary,\r\n        string memory position,\r\n        string memory date\r\n    ) public {\r\n        require(!offerLetterExists[offerLetterId], \"Offer letter ID already exists\");\r\n\r\n        // Create offer hash\r\n        string memory offerDetails = string(abi.encodePacked(organisation, candidate, salary, position, date));\r\n        bytes32 offerHashBytes = keccak256(abi.encodePacked(offerDetails));\r\n        string memory offerHash = toHexString(offerHashBytes);\r\n\r\n        // Generate unique URL\r\n        string memory uniqueURL = string(abi.encodePacked(\"https://company.com/offer/\", offerLetterId));\r\n\r\n        OfferLetter memory newOfferLetter = OfferLetter({\r\n            offerLetterId: offerLetterId,\r\n            organisation: organisation,\r\n            candidate: candidate,\r\n            salary: salary,\r\n            position: position,\r\n            date: date,\r\n            offerHash: offerHash,\r\n            uniqueURL: uniqueURL\r\n        });\r\n\r\n        offerLetters[offerLetterId] = newOfferLetter;\r\n        offerLetterExists[offerLetterId] = true;\r\n\r\n        emit OfferLetterCreated(offerLetterId, organisation, candidate, offerHash, uniqueURL);\r\n    }\r\n\r\n    function queryOfferLetter(string memory offerLetterId)\r\n        public\r\n        view\r\n        returns (\r\n            string memory organisation,\r\n            string memory candidate,\r\n            string memory salary,\r\n            string memory position,\r\n            string memory date,\r\n            string memory offerHash,\r\n            string memory uniqueURL\r\n        )\r\n    {\r\n        require(offerLetterExists[offerLetterId], \"Offer letter ID does not exist\");\r\n\r\n        OfferLetter memory offerLetter = offerLetters[offerLetterId];\r\n        return (\r\n            offerLetter.organisation,\r\n            offerLetter.candidate,\r\n            offerLetter.salary,\r\n            offerLetter.position,\r\n            offerLetter.date,\r\n            offerLetter.offerHash,\r\n            offerLetter.uniqueURL\r\n        );\r\n    }\r\n\r\n    function verifyOfferLetter(\r\n        string memory offerLetterId,\r\n        string memory organisation,\r\n        string memory candidate,\r\n        string memory salary,\r\n        string memory position,\r\n        string memory date\r\n    ) public view returns (bool) {\r\n        require(offerLetterExists[offerLetterId], \"Offer letter ID does not exist\");\r\n\r\n        OfferLetter memory offerLetter = offerLetters[offerLetterId];\r\n        string memory offerDetails = string(abi.encodePacked(organisation, candidate, salary, position, date));\r\n        bytes32 offerHashBytes = keccak256(abi.encodePacked(offerDetails));\r\n        string memory offerHash = toHexString(offerHashBytes);\r\n\r\n        return (keccak256(abi.encodePacked(offerLetter.offerHash)) == keccak256(abi.encodePacked(offerHash)));\r\n    }\r\n\r\n    function toHexString(bytes32 data) internal pure returns (string memory) {\r\n        bytes memory alphabet = \"0123456789abcdef\";\r\n        bytes memory str = new bytes(64);\r\n        for (uint256 i = 0; i < 32; i++) {\r\n            str[i * 2] = alphabet[uint8(data[i] >> 4)];\r\n            str[1 + i * 2] = alphabet[uint8(data[i] & 0x0f)];\r\n        }\r\n        return string(str);\r\n    }\r\n}",
  "sourcePath": "C:\\Users\\KIIT0001\\Desktop\\CertiChain\\smart-contracts\\contracts\\OfferLetterContract.sol",
  "compiler": {
    "name": "solc",
    "version": "0.8.21+commit.d9974bed.Emscripten.clang"
  },
  "schemaVersion": "3.4.16",
  "updatedAt": "2024-06-29T04:57:18.833Z",
  "networkType": "ethereum",
  "devdoc": {
    "kind": "dev",
    "methods": {},
    "version": 1
  },
  "userdoc": {
    "kind": "user",
    "methods": {},
    "version": 1
  }
}